{
  "_format": "hh-sol-artifact-1",
  "contractName": "Staking",
  "sourceName": "contracts/Staking.sol",
  "abi": [
    {
      "inputs": [
        {
          "internalType": "address",
          "name": "_tokenAddress",
          "type": "address"
        },
        {
          "internalType": "uint256",
          "name": "_quota",
          "type": "uint256"
        },
        {
          "internalType": "uint256",
          "name": "_limitReward",
          "type": "uint256"
        }
      ],
      "stateMutability": "nonpayable",
      "type": "constructor"
    },
    {
      "anonymous": false,
      "inputs": [
        {
          "indexed": true,
          "internalType": "address",
          "name": "previousOwner",
          "type": "address"
        },
        {
          "indexed": true,
          "internalType": "address",
          "name": "newOwner",
          "type": "address"
        }
      ],
      "name": "OwnershipTransferred",
      "type": "event"
    },
    {
      "anonymous": false,
      "inputs": [
        {
          "indexed": false,
          "internalType": "address",
          "name": "staker",
          "type": "address"
        },
        {
          "indexed": false,
          "internalType": "uint256",
          "name": "amount",
          "type": "uint256"
        }
      ],
      "name": "Reward",
      "type": "event"
    },
    {
      "anonymous": false,
      "inputs": [
        {
          "indexed": false,
          "internalType": "address",
          "name": "staker",
          "type": "address"
        },
        {
          "indexed": false,
          "internalType": "uint256",
          "name": "amount",
          "type": "uint256"
        }
      ],
      "name": "Stake",
      "type": "event"
    },
    {
      "anonymous": false,
      "inputs": [
        {
          "indexed": false,
          "internalType": "address",
          "name": "staker",
          "type": "address"
        },
        {
          "indexed": false,
          "internalType": "uint256",
          "name": "amount",
          "type": "uint256"
        }
      ],
      "name": "Withdraw",
      "type": "event"
    },
    {
      "inputs": [],
      "name": "claimRewards",
      "outputs": [],
      "stateMutability": "nonpayable",
      "type": "function"
    },
    {
      "inputs": [
        {
          "internalType": "address",
          "name": "stakerAddress",
          "type": "address"
        }
      ],
      "name": "countReward",
      "outputs": [
        {
          "internalType": "uint256",
          "name": "_reward",
          "type": "uint256"
        }
      ],
      "stateMutability": "view",
      "type": "function"
    },
    {
      "inputs": [
        {
          "internalType": "address",
          "name": "stakerAddress",
          "type": "address"
        }
      ],
      "name": "countStake",
      "outputs": [
        {
          "internalType": "uint256",
          "name": "_stake",
          "type": "uint256"
        }
      ],
      "stateMutability": "view",
      "type": "function"
    },
    {
      "inputs": [],
      "name": "countTotalReward",
      "outputs": [
        {
          "internalType": "uint256",
          "name": "_totalReward",
          "type": "uint256"
        }
      ],
      "stateMutability": "view",
      "type": "function"
    },
    {
      "inputs": [],
      "name": "countTotalStake",
      "outputs": [
        {
          "internalType": "uint256",
          "name": "_totalStake",
          "type": "uint256"
        }
      ],
      "stateMutability": "view",
      "type": "function"
    },
    {
      "inputs": [
        {
          "internalType": "address",
          "name": "stakerAddress",
          "type": "address"
        }
      ],
      "name": "getStakeInfo",
      "outputs": [
        {
          "internalType": "uint256",
          "name": "_total",
          "type": "uint256"
        },
        {
          "internalType": "uint256",
          "name": "_staking",
          "type": "uint256"
        },
        {
          "internalType": "uint256",
          "name": "_rewardable",
          "type": "uint256"
        },
        {
          "internalType": "uint256",
          "name": "_rewards",
          "type": "uint256"
        }
      ],
      "stateMutability": "view",
      "type": "function"
    },
    {
      "inputs": [],
      "name": "lastUpdateTime",
      "outputs": [
        {
          "internalType": "uint256",
          "name": "",
          "type": "uint256"
        }
      ],
      "stateMutability": "view",
      "type": "function"
    },
    {
      "inputs": [],
      "name": "limitReward",
      "outputs": [
        {
          "internalType": "uint256",
          "name": "",
          "type": "uint256"
        }
      ],
      "stateMutability": "view",
      "type": "function"
    },
    {
      "inputs": [],
      "name": "owner",
      "outputs": [
        {
          "internalType": "address",
          "name": "",
          "type": "address"
        }
      ],
      "stateMutability": "view",
      "type": "function"
    },
    {
      "inputs": [],
      "name": "quota",
      "outputs": [
        {
          "internalType": "uint256",
          "name": "",
          "type": "uint256"
        }
      ],
      "stateMutability": "view",
      "type": "function"
    },
    {
      "inputs": [],
      "name": "renounceOwnership",
      "outputs": [],
      "stateMutability": "nonpayable",
      "type": "function"
    },
    {
      "inputs": [
        {
          "internalType": "uint256",
          "name": "amount",
          "type": "uint256"
        }
      ],
      "name": "stake",
      "outputs": [],
      "stateMutability": "nonpayable",
      "type": "function"
    },
    {
      "inputs": [
        {
          "internalType": "address",
          "name": "",
          "type": "address"
        }
      ],
      "name": "stakers",
      "outputs": [
        {
          "internalType": "uint256",
          "name": "stakingAmount",
          "type": "uint256"
        },
        {
          "internalType": "uint256",
          "name": "lastUpdateTime",
          "type": "uint256"
        },
        {
          "internalType": "uint256",
          "name": "lastStakeUpdateTime",
          "type": "uint256"
        },
        {
          "internalType": "uint256",
          "name": "stake",
          "type": "uint256"
        },
        {
          "internalType": "uint256",
          "name": "rewards",
          "type": "uint256"
        }
      ],
      "stateMutability": "view",
      "type": "function"
    },
    {
      "inputs": [],
      "name": "startBlockNumber",
      "outputs": [
        {
          "internalType": "uint256",
          "name": "",
          "type": "uint256"
        }
      ],
      "stateMutability": "view",
      "type": "function"
    },
    {
      "inputs": [],
      "name": "tokenAddress",
      "outputs": [
        {
          "internalType": "address",
          "name": "",
          "type": "address"
        }
      ],
      "stateMutability": "view",
      "type": "function"
    },
    {
      "inputs": [],
      "name": "totalReward",
      "outputs": [
        {
          "internalType": "uint256",
          "name": "",
          "type": "uint256"
        }
      ],
      "stateMutability": "view",
      "type": "function"
    },
    {
      "inputs": [],
      "name": "totalStake",
      "outputs": [
        {
          "internalType": "uint256",
          "name": "",
          "type": "uint256"
        }
      ],
      "stateMutability": "view",
      "type": "function"
    },
    {
      "inputs": [],
      "name": "totalStakingAmount",
      "outputs": [
        {
          "internalType": "uint256",
          "name": "",
          "type": "uint256"
        }
      ],
      "stateMutability": "view",
      "type": "function"
    },
    {
      "inputs": [
        {
          "internalType": "address",
          "name": "newOwner",
          "type": "address"
        }
      ],
      "name": "transferOwnership",
      "outputs": [],
      "stateMutability": "nonpayable",
      "type": "function"
    },
    {
      "inputs": [],
      "name": "unstaking",
      "outputs": [],
      "stateMutability": "nonpayable",
      "type": "function"
    }
  ],
  "bytecode": "0x608060405234801561001057600080fd5b50604051610eed380380610eed83398101604081905261002f916100cf565b426002819055600080546001600160a01b0319166001600160a01b03861617905560035561006582670de0b6b3a7640000610110565b60065561007a81670de0b6b3a7640000610110565b60075561008561008d565b50505061013b565b600980546001600160a01b031916339081179091556040516000907f8be0079c531659141344cd1fd0a4f28419497f9722a3daafe3b4186f6b6457e0908290a3565b6000806000606084860312156100e3578283fd5b83516001600160a01b03811681146100f9578384fd5b602085015160409095015190969495509392505050565b600081600019048311821515161561013657634e487b7160e01b81526011600452602481fd5b500290565b610da38061014a6000396000f3fe608060405234801561001057600080fd5b506004361061012c5760003560e01c80639d76ea58116100ad578063c98a891611610071578063c98a891614610293578063cebe09c91461029c578063d201114a146102a5578063e7caa8c4146102ae578063f2fde38b146102b657600080fd5b80639d76ea581461021e578063a694fc3a14610231578063b87089d914610244578063c345315314610257578063c8f33c911461028a57600080fd5b8063715018a6116100f4578063715018a61461017a578063750142e6146101825780638b0e9f3f1461018b5780638da5cb5b146101945780639168ae72146101b957600080fd5b80632461da5514610131578063372500ab1461014c578063498a4c2d1461015657806356714be31461015f578063630b114614610172575b600080fd5b6101396102c9565b6040519081526020015b60405180910390f35b6101546102fe565b005b61013960025481565b61013961016d366004610c72565b610509565b61015461055a565b610154610693565b61013960045481565b61013960055481565b6009546001600160a01b03165b6040516001600160a01b039091168152602001610143565b6101f66101c7366004610c72565b600860205260009081526040902080546001820154600283015460038401546004909401549293919290919085565b604080519586526020860194909452928401919091526060830152608082015260a001610143565b6000546101a1906001600160a01b031681565b61015461023f366004610cb9565b610737565b610139610252366004610c72565b61086f565b61026a610265366004610c72565b610914565b604080519485526020850193909352918301526060820152608001610143565b61013960035481565b61013960075481565b61013960065481565b61013960015481565b610139610963565b6101546102c4366004610c72565b61099a565b60006102ec6102e360035442610a0090919063ffffffff16565b60015490610a5c565b6005546102f99190610ce9565b905090565b33600061030a8261086f565b9050600061031783610509565b905060008111801561032b57506000600754115b61037c5760405162461bcd60e51b815260206004820152601c60248201527f7374616b696e67203a2072657761726420616d6f756e7420697320300000000060448201526064015b60405180910390fd5b806007541061038b578061038f565b6007545b60005460405163a9059cbb60e01b81526001600160a01b0386811660048301526024820184905292935091169063a9059cbb90604401602060405180830381600087803b1580156103df57600080fd5b505af11580156103f3573d6000803e3d6000fd5b505050506040513d601f19601f820116820180604052508101906104179190610c99565b506001600160a01b03831660009081526008602052604081206004018054839290610443908490610ce9565b92505081905550816005600082825461045c9190610d40565b9250508190555080600460008282546104759190610d40565b92505081905550806007600082825461048e9190610d40565b90915550506001600160a01b03831660009081526008602052604081206003810191909155426001909101556104c2610ac3565b604080516001600160a01b0385168152602081018390527f619caafabdd75649b302ba8419e48cccf64f37f1983ac4727cfb38b57703ffc9910160405180910390a1505050565b6000806105146102c9565b90506000610520610963565b9050600061052d8561086f565b9050821561054e57610549836105438484610a5c565b90610b5f565b610551565b60005b95945050505050565b336000818152600860205260409020546000546001600160a01b031663a9059cbb8361058c6103e86105438682610a5c565b6040516001600160e01b031960e085901b1681526001600160a01b0390921660048301526024820152604401602060405180830381600087803b1580156105d257600080fd5b505af11580156105e6573d6000803e3d6000fd5b505050506040513d601f19601f8201168201806040525081019061060a9190610c99565b506106148261086f565b6001600160a01b038316600090815260086020526040812060038101929092558155426001820181905560029091015561064c610ac3565b604080516001600160a01b0384168152602081018390527f884edad9ce6fa2440d8a54cc123490eb96d2768479d49ff9c7366125a942436491015b60405180910390a15050565b6009546001600160a01b031633146106ed5760405162461bcd60e51b815260206004820181905260248201527f4f776e61626c653a2063616c6c6572206973206e6f7420746865206f776e65726044820152606401610373565b6009546040516000916001600160a01b0316907f8be0079c531659141344cd1fd0a4f28419497f9722a3daafe3b4186f6b6457e0908390a3600980546001600160a01b0319169055565b6000546040516323b872dd60e01b8152336004820181905230602483015260448201849052916001600160a01b0316906323b872dd90606401602060405180830381600087803b15801561078a57600080fd5b505af115801561079e573d6000803e3d6000fd5b505050506040513d601f19601f820116820180604052508101906107c29190610c99565b506107cc8161086f565b6001600160a01b038216600090815260086020526040812060038101929092558154849291906107fd908490610ce9565b90915550506001600160a01b03811660009081526008602052604090204260018201819055600290910155610830610ac3565b604080516001600160a01b0383168152602081018490527febedb8b3c678666e7f36970bc8f57abf6d8fa2e828c0da91ea5b75bf68ed101a9101610687565b6001600160a01b0381166000908152600860209081526040808320815160a08101835281548152600180830154948201949094526002820154928101929092526003810154606083015260040154608082015290541580156108d357506060810151155b156108e15750600092915050565b805160208201516108fe91906108f8904290610a00565b90610a5c565b816060015161090d9190610ce9565b9392505050565b6001546001600160a01b038216600090815260086020526040812054908061093b85610509565b6001600160a01b03909516600090815260086020526040902060040154939592949392915050565b600061098d6201518061054361098460035442610a0090919063ffffffff16565b60065490610a5c565b6004546102f99190610ce9565b6009546001600160a01b031633146109f45760405162461bcd60e51b815260206004820181905260248201527f4f776e61626c653a2063616c6c6572206973206e6f7420746865206f776e65726044820152606401610373565b6109fd81610bb1565b50565b600082610a0d8382610d40565b9150811115610a565760405162461bcd60e51b815260206004820152601560248201527464732d6d6174682d7375622d756e646572666c6f7760581b6044820152606401610373565b92915050565b6000811580610a8057508282610a728183610d21565b9250610a7e9083610d01565b145b610a565760405162461bcd60e51b815260206004820152601460248201527364732d6d6174682d6d756c2d6f766572666c6f7760601b6044820152606401610373565b610acb6102c9565b600555610ad6610963565b6004908155426003556000546040516370a0823160e01b815230928101929092526001600160a01b0316906370a082319060240160206040518083038186803b158015610b2257600080fd5b505afa158015610b36573d6000803e3d6000fd5b505050506040513d601f19601f82011682018060405250810190610b5a9190610cd1565b600155565b6000808211610ba75760405162461bcd60e51b815260206004820152601460248201527364732d6d6174682d6d756c2d6f766572666c6f7760601b6044820152606401610373565b61090d8284610d01565b6001600160a01b038116610c165760405162461bcd60e51b815260206004820152602660248201527f4f776e61626c653a206e6577206f776e657220697320746865207a65726f206160448201526564647265737360d01b6064820152608401610373565b6009546040516001600160a01b038084169216907f8be0079c531659141344cd1fd0a4f28419497f9722a3daafe3b4186f6b6457e090600090a3600980546001600160a01b0319166001600160a01b0392909216919091179055565b600060208284031215610c83578081fd5b81356001600160a01b038116811461090d578182fd5b600060208284031215610caa578081fd5b8151801515811461090d578182fd5b600060208284031215610cca578081fd5b5035919050565b600060208284031215610ce2578081fd5b5051919050565b60008219821115610cfc57610cfc610d57565b500190565b600082610d1c57634e487b7160e01b81526012600452602481fd5b500490565b6000816000190483118215151615610d3b57610d3b610d57565b500290565b600082821015610d5257610d52610d57565b500390565b634e487b7160e01b600052601160045260246000fdfea2646970667358221220b8a2cb983befa9893272080967d1f7e92b11f481b874f3ad38dfa3e8252822aa64736f6c63430008040033",
  "linkReferences": {},
  "deployedLinkReferences": {}
}